{"abi":[{"type":"constructor","inputs":[{"name":"_tokenaddress","type":"address","internalType":"address"},{"name":"_fees","type":"uint256","internalType":"uint256"}],"stateMutability":"nonpayable"},{"type":"receive","stateMutability":"payable"},{"type":"function","name":"calectedAmount","inputs":[],"outputs":[{"name":"","type":"uint256","internalType":"uint256"}],"stateMutability":"view"},{"type":"function","name":"closePresale","inputs":[],"outputs":[],"stateMutability":"payable"},{"type":"function","name":"goalTime","inputs":[],"outputs":[{"name":"","type":"uint256","internalType":"uint256"}],"stateMutability":"view"},{"type":"function","name":"goalToken","inputs":[],"outputs":[{"name":"","type":"uint256","internalType":"uint256"}],"stateMutability":"view"},{"type":"function","name":"investorData","inputs":[{"name":"","type":"address","internalType":"address"}],"outputs":[{"name":"amount","type":"uint256","internalType":"uint256"},{"name":"totalRewardget","type":"uint256","internalType":"uint256"},{"name":"isregister","type":"bool","internalType":"bool"}],"stateMutability":"view"},{"type":"function","name":"isPresaleDone","inputs":[],"outputs":[{"name":"","type":"bool","internalType":"bool"}],"stateMutability":"view"},{"type":"function","name":"isWhitelisted","inputs":[{"name":"_address","type":"address","internalType":"address"}],"outputs":[{"name":"","type":"bool","internalType":"bool"}],"stateMutability":"view"},{"type":"function","name":"minToken","inputs":[],"outputs":[{"name":"","type":"uint256","internalType":"uint256"}],"stateMutability":"view"},{"type":"function","name":"owner","inputs":[],"outputs":[{"name":"","type":"address","internalType":"address payable"}],"stateMutability":"view"},{"type":"function","name":"presaleStart","inputs":[],"outputs":[{"name":"","type":"bool","internalType":"bool"}],"stateMutability":"view"},{"type":"function","name":"register","inputs":[{"name":"_amount","type":"uint256","internalType":"uint256"}],"outputs":[],"stateMutability":"payable"},{"type":"function","name":"registrationfees","inputs":[],"outputs":[{"name":"","type":"uint256","internalType":"uint256"}],"stateMutability":"view"},{"type":"function","name":"removeInvestorAdd","inputs":[{"name":"_to","type":"address","internalType":"address"}],"outputs":[],"stateMutability":"nonpayable"},{"type":"function","name":"rewardamount","inputs":[],"outputs":[{"name":"","type":"uint256","internalType":"uint256"}],"stateMutability":"view"},{"type":"function","name":"setPresale","inputs":[{"name":"_rewardamount","type":"uint256","internalType":"uint256"},{"name":"_goalToken","type":"uint256","internalType":"uint256"},{"name":"_minToken","type":"uint256","internalType":"uint256"},{"name":"_goalTime","type":"uint256","internalType":"uint256"}],"outputs":[],"stateMutability":"nonpayable"},{"type":"function","name":"tokenaddress","inputs":[],"outputs":[{"name":"","type":"address","internalType":"address"}],"stateMutability":"view"},{"type":"function","name":"withdraw","inputs":[],"outputs":[],"stateMutability":"nonpayable"},{"type":"event","name":"Deposit","inputs":[{"name":"account","type":"address","indexed":false,"internalType":"address"},{"name":"amount","type":"uint256","indexed":false,"internalType":"uint256"}],"anonymous":false},{"type":"error","name":"ReentrancyGuardReentrantCall","inputs":[]}],"bytecode":{"object":"0x6080604052348015600f57600080fd5b50604051610d9e380380610d9e833981016040819052602c916070565b600160008190558054336001600160a01b031991821617909155600280549091166001600160a01b0384161790556066816305f5e10060a8565b6003555060d29050565b60008060408385031215608257600080fd5b82516001600160a01b0381168114609857600080fd5b6020939093015192949293505050565b808202811582820484141760cc57634e487b7160e01b600052601160045260246000fd5b92915050565b610cbd806100e16000396000f3fe6080604052600436106101015760003560e01c8063927ac38611610095578063df06843811610064578063df06843814610312578063f207564e14610328578063f3232dee1461033b578063fa60519f1461035b578063fbd296441461037157600080fd5b8063927ac38614610267578063a859a09214610281578063de1f534614610297578063de8801e5146102f357600080fd5b806361128ee7116100d157806361128ee71461020957806363cea450146102295780638cd93112146102315780638da5cb5b1461024757600080fd5b8062e24e25146101455780633af32abf1461016e5780633ccfd60b146101ba5780633feff76d146101d157600080fd5b3661014057604080513381523460208201527fe1fffcc4923d04b559f4d29a8bfc6cda04eb5b0d3c460751c2402c5c5cc9109c910160405180910390a1005b600080fd5b34801561015157600080fd5b5061015b60035481565b6040519081526020015b60405180910390f35b34801561017a57600080fd5b506101aa610189366004610b37565b6001600160a01b03166000908152600a602052604090206002015460ff1690565b6040519015158152602001610165565b3480156101c657600080fd5b506101cf610387565b005b3480156101dd57600080fd5b506002546101f1906001600160a01b031681565b6040516001600160a01b039091168152602001610165565b34801561021557600080fd5b506101cf610224366004610b37565b61056a565b6101cf6105b8565b34801561023d57600080fd5b5061015b60065481565b34801561025357600080fd5b506001546101f1906001600160a01b031681565b34801561027357600080fd5b506009546101aa9060ff1681565b34801561028d57600080fd5b5061015b60045481565b3480156102a357600080fd5b506102d66102b2366004610b37565b600a6020526000908152604090208054600182015460029092015490919060ff1683565b604080519384526020840192909252151590820152606001610165565b3480156102ff57600080fd5b506009546101aa90610100900460ff1681565b34801561031e57600080fd5b5061015b60085481565b6101cf610336366004610b67565b610760565b34801561034757600080fd5b506101cf610356366004610b80565b610adb565b34801561036757600080fd5b5061015b60075481565b34801561037d57600080fd5b5061015b60055481565b336000908152600a602052604090206002015460ff1615156001146103eb5760405162461bcd60e51b81526020600482015260156024820152743cb7bab91030b932903737ba1034b73b32b9ba32b960591b60448201526064015b60405180910390fd5b336000908152600a602052604081205490036104375760405162461bcd60e51b815260206004820152600b60248201526a0416d6f756e7420697320360ac1b60448201526064016103e2565b6008544211156104d057600254336000818152600a60205260409081902060010154905163a9059cbb60e01b8152600481019290925260248201526001600160a01b039091169063a9059cbb906044016020604051808303816000875af11580156104a6573d6000803e3d6000fd5b505050506040513d601f19601f820116820180604052508101906104ca9190610bb2565b50610558565b600254336000818152600a60205260409081902054905163a9059cbb60e01b8152600481019290925260248201526001600160a01b039091169063a9059cbb906044016020604051808303816000875af1158015610532573d6000803e3d6000fd5b505050506040513d601f19601f820116820180604052508101906105569190610bb2565b505b336000908152600a6020526040812055565b6001546001600160a01b031633146105945760405162461bcd60e51b81526004016103e290610bd4565b6001600160a01b03166000908152600a60205260409020600201805460ff19169055565b6001546001600160a01b031633146105e25760405162461bcd60e51b81526004016103e290610bd4565b60095460ff1615156001146106395760405162461bcd60e51b815260206004820152601860248201527f50726573616c65206973206e6f7420636f6d706c69746564000000000000000060448201526064016103e2565b6006546002546040516370a0823160e01b8152306004820152600092916001600160a01b0316906370a0823190602401602060405180830381865afa158015610686573d6000803e3d6000fd5b505050506040513d601f19601f820116820180604052508101906106aa9190610c15565b6106b49190610c44565b60025460015460405163a9059cbb60e01b81526001600160a01b03918216600482015260248101849052929350169063a9059cbb906044016020604051808303816000875af115801561070b573d6000803e3d6000fd5b505050506040513d601f19601f8201168201806040525081019061072f9190610bb2565b5060405133904780156108fc02916000818181858888f1935050505015801561075c573d6000803e3d6000fd5b5050565b60035434146107b15760405162461bcd60e51b815260206004820152601860248201527f496e7366696369656e742066656573207472616e73666572000000000000000060448201526064016103e2565b60095460ff61010090910416151560011461080e5760405162461bcd60e51b815260206004820152601860248201527f50726573616c65206973206e6f7420737461727420796574000000000000000060448201526064016103e2565b60095460ff1615156001036108575760405162461bcd60e51b815260206004820152600f60248201526e283932b9b0b6329034b99027bb32b960891b60448201526064016103e2565b6007546006541061089f5760405162461bcd60e51b815260206004820152601260248201527111dbd85b081d1bdad95b881c995858da195960721b60448201526064016103e2565b60085442106108e35760405162461bcd60e51b815260206004820152601060248201526f11dbd85b081d1a5b59481c9958da195960821b60448201526064016103e2565b60045481101561092d5760405162461bcd60e51b8152602060048201526015602482015274125b9cd99a58da595b9d08125b9d995cdd1b595b9d605a1b60448201526064016103e2565b6002546040516323b872dd60e01b8152336004820152306024820152604481018390526001600160a01b03909116906323b872dd906064016020604051808303816000875af1158015610984573d6000803e3d6000fd5b505050506040513d601f19601f820116820180604052508101906109a89190610bb2565b50336000908152600a602052604090206002015460ff161515600103610a6757600554336000908152600a60205260408120549091906109e9908490610c5d565b6109f39190610c5d565b60408051606081018252336000908152600a6020529190912054919250908190610a1e908590610c5d565b815260208082019390935260016040918201819052336000908152600a855282902083518155938301519084015501516002909101805460ff1916911515919091179055610ac7565b600060055482610a779190610c5d565b6040805160608101825284815260208082019384526001828401818152336000908152600a9093529390912091518255925192810192909255516002909101805460ff1916911515919091179055505b80600654610ad59190610c5d565b60065550565b6001546001600160a01b03163314610b055760405162461bcd60e51b81526004016103e290610bd4565b600584905560078390556004829055610b1f81603c610c70565b60085550506009805461ff0019166101001790555050565b600060208284031215610b4957600080fd5b81356001600160a01b0381168114610b6057600080fd5b9392505050565b600060208284031215610b7957600080fd5b5035919050565b60008060008060808587031215610b9657600080fd5b5050823594602084013594506040840135936060013592509050565b600060208284031215610bc457600080fd5b81518015158114610b6057600080fd5b60208082526021908201527f4f6e6c79206f776e65722063616e2063616c6c20746869732066756e6374696f6040820152603760f91b606082015260800190565b600060208284031215610c2757600080fd5b5051919050565b634e487b7160e01b600052601160045260246000fd5b81810381811115610c5757610c57610c2e565b92915050565b80820180821115610c5757610c57610c2e565b8082028115828204841417610c5757610c57610c2e56fea264697066735822122079c0ac6bc27a18958c8a16a9289f874f50930d141038ea6dc8190246b0b6f90164736f6c63430008190033","linkReferences":{}},"methodIdentifiers":{"calectedAmount()":"8cd93112","closePresale()":"63cea450","goalTime()":"df068438","goalToken()":"fa60519f","investorData(address)":"de1f5346","isPresaleDone()":"927ac386","isWhitelisted(address)":"3af32abf","minToken()":"a859a092","owner()":"8da5cb5b","presaleStart()":"de8801e5","register(uint256)":"f207564e","registrationfees()":"00e24e25","removeInvestorAdd(address)":"61128ee7","rewardamount()":"fbd29644","setPresale(uint256,uint256,uint256,uint256)":"f3232dee","tokenaddress()":"3feff76d","withdraw()":"3ccfd60b"},"id":33}