{"abi":[{"type":"constructor","inputs":[],"stateMutability":"nonpayable"},{"type":"function","name":"allowance","inputs":[{"name":"owner","type":"address","internalType":"address"},{"name":"spender","type":"address","internalType":"address"}],"outputs":[{"name":"","type":"uint256","internalType":"uint256"}],"stateMutability":"view"},{"type":"function","name":"approve","inputs":[{"name":"spender","type":"address","internalType":"address"},{"name":"value","type":"uint256","internalType":"uint256"}],"outputs":[{"name":"","type":"bool","internalType":"bool"}],"stateMutability":"nonpayable"},{"type":"function","name":"balanceOf","inputs":[{"name":"account","type":"address","internalType":"address"}],"outputs":[{"name":"","type":"uint256","internalType":"uint256"}],"stateMutability":"view"},{"type":"function","name":"decimals","inputs":[],"outputs":[{"name":"","type":"uint8","internalType":"uint8"}],"stateMutability":"view"},{"type":"function","name":"mint","inputs":[{"name":"_amount","type":"uint256","internalType":"uint256"}],"outputs":[{"name":"","type":"uint256","internalType":"uint256"}],"stateMutability":"nonpayable"},{"type":"function","name":"name","inputs":[],"outputs":[{"name":"","type":"string","internalType":"string"}],"stateMutability":"view"},{"type":"function","name":"owner","inputs":[],"outputs":[{"name":"","type":"address","internalType":"address"}],"stateMutability":"view"},{"type":"function","name":"renounceOwnership","inputs":[],"outputs":[],"stateMutability":"nonpayable"},{"type":"function","name":"symbol","inputs":[],"outputs":[{"name":"","type":"string","internalType":"string"}],"stateMutability":"view"},{"type":"function","name":"totalSupply","inputs":[],"outputs":[{"name":"","type":"uint256","internalType":"uint256"}],"stateMutability":"view"},{"type":"function","name":"transfer","inputs":[{"name":"to","type":"address","internalType":"address"},{"name":"value","type":"uint256","internalType":"uint256"}],"outputs":[{"name":"","type":"bool","internalType":"bool"}],"stateMutability":"nonpayable"},{"type":"function","name":"transferFrom","inputs":[{"name":"from","type":"address","internalType":"address"},{"name":"to","type":"address","internalType":"address"},{"name":"value","type":"uint256","internalType":"uint256"}],"outputs":[{"name":"","type":"bool","internalType":"bool"}],"stateMutability":"nonpayable"},{"type":"function","name":"transferOwnership","inputs":[{"name":"newOwner","type":"address","internalType":"address"}],"outputs":[],"stateMutability":"nonpayable"},{"type":"event","name":"Approval","inputs":[{"name":"owner","type":"address","indexed":true,"internalType":"address"},{"name":"spender","type":"address","indexed":true,"internalType":"address"},{"name":"value","type":"uint256","indexed":false,"internalType":"uint256"}],"anonymous":false},{"type":"event","name":"OwnershipTransferred","inputs":[{"name":"previousOwner","type":"address","indexed":true,"internalType":"address"},{"name":"newOwner","type":"address","indexed":true,"internalType":"address"}],"anonymous":false},{"type":"event","name":"Transfer","inputs":[{"name":"from","type":"address","indexed":true,"internalType":"address"},{"name":"to","type":"address","indexed":true,"internalType":"address"},{"name":"value","type":"uint256","indexed":false,"internalType":"uint256"}],"anonymous":false},{"type":"error","name":"ERC20InsufficientAllowance","inputs":[{"name":"spender","type":"address","internalType":"address"},{"name":"allowance","type":"uint256","internalType":"uint256"},{"name":"needed","type":"uint256","internalType":"uint256"}]},{"type":"error","name":"ERC20InsufficientBalance","inputs":[{"name":"sender","type":"address","internalType":"address"},{"name":"balance","type":"uint256","internalType":"uint256"},{"name":"needed","type":"uint256","internalType":"uint256"}]},{"type":"error","name":"ERC20InvalidApprover","inputs":[{"name":"approver","type":"address","internalType":"address"}]},{"type":"error","name":"ERC20InvalidReceiver","inputs":[{"name":"receiver","type":"address","internalType":"address"}]},{"type":"error","name":"ERC20InvalidSender","inputs":[{"name":"sender","type":"address","internalType":"address"}]},{"type":"error","name":"ERC20InvalidSpender","inputs":[{"name":"spender","type":"address","internalType":"address"}]},{"type":"error","name":"OwnableInvalidOwner","inputs":[{"name":"owner","type":"address","internalType":"address"}]},{"type":"error","name":"OwnableUnauthorizedAccount","inputs":[{"name":"account","type":"address","internalType":"address"}]}],"bytecode":{"object":"0x608060405234801561001057600080fd5b5033604051806040016040528060098152602001684d7920546f6b656e7360b81b81525060405180604001604052806002815260200161135560f21b815250816003908161005e9190610317565b50600461006b8282610317565b5050506001600160a01b03811661009d57604051631e4fbdf760e01b8152600060048201526024015b60405180910390fd5b6100a6816100c0565b506100bb3369152d02c7e14af6800000610112565b6103fd565b600580546001600160a01b038381166001600160a01b0319831681179093556040519116919082907f8be0079c531659141344cd1fd0a4f28419497f9722a3daafe3b4186f6b6457e090600090a35050565b6001600160a01b03821661013c5760405163ec442f0560e01b815260006004820152602401610094565b6101486000838361014c565b5050565b6001600160a01b03831661017757806002600082825461016c91906103d6565b909155506101e99050565b6001600160a01b038316600090815260208190526040902054818110156101ca5760405163391434e360e21b81526001600160a01b03851660048201526024810182905260448101839052606401610094565b6001600160a01b03841660009081526020819052604090209082900390555b6001600160a01b03821661020557600280548290039055610224565b6001600160a01b03821660009081526020819052604090208054820190555b816001600160a01b0316836001600160a01b03167fddf252ad1be2c89b69c2b068fc378daa952ba7f163c4a11628f55a4df523b3ef8360405161026991815260200190565b60405180910390a3505050565b634e487b7160e01b600052604160045260246000fd5b600181811c908216806102a057607f821691505b6020821081036102c057634e487b7160e01b600052602260045260246000fd5b50919050565b601f821115610312576000816000526020600020601f850160051c810160208610156102ef5750805b601f850160051c820191505b8181101561030e578281556001016102fb565b5050505b505050565b81516001600160401b0381111561033057610330610276565b6103448161033e845461028c565b846102c6565b602080601f83116001811461037957600084156103615750858301515b600019600386901b1c1916600185901b17855561030e565b600085815260208120601f198616915b828110156103a857888601518255948401946001909101908401610389565b50858210156103c65787850151600019600388901b60f8161c191681555b5050505050600190811b01905550565b808201808211156103f757634e487b7160e01b600052601160045260246000fd5b92915050565b6108e38061040c6000396000f3fe608060405234801561001057600080fd5b50600436106100cf5760003560e01c8063715018a61161008c578063a0712d6811610066578063a0712d681461019f578063a9059cbb146101b2578063dd62ed3e146101c5578063f2fde38b146101fe57600080fd5b8063715018a6146101725780638da5cb5b1461017c57806395d89b411461019757600080fd5b806306fdde03146100d4578063095ea7b3146100f257806318160ddd1461011557806323b872dd14610127578063313ce5671461013a57806370a0823114610149575b600080fd5b6100dc610211565b6040516100e99190610718565b60405180910390f35b61010561010036600461077e565b6102a3565b60405190151581526020016100e9565b6002545b6040519081526020016100e9565b6101056101353660046107a8565b6102bd565b604051601281526020016100e9565b6101196101573660046107e4565b6001600160a01b031660009081526020819052604090205490565b61017a6102e1565b005b6005546040516001600160a01b0390911681526020016100e9565b6100dc6102f5565b6101196101ad366004610806565b610304565b6101056101c036600461077e565b610320565b6101196101d336600461081f565b6001600160a01b03918216600090815260016020908152604080832093909416825291909152205490565b61017a61020c3660046107e4565b61032e565b60606003805461022090610852565b80601f016020809104026020016040519081016040528092919081815260200182805461024c90610852565b80156102995780601f1061026e57610100808354040283529160200191610299565b820191906000526020600020905b81548152906001019060200180831161027c57829003601f168201915b5050505050905090565b6000336102b1818585610371565b60019150505b92915050565b6000336102cb858285610383565b6102d6858585610401565b506001949350505050565b6102e9610460565b6102f3600061048d565b565b60606004805461022090610852565b600061030e610460565b61031833836104df565b50805b919050565b6000336102b1818585610401565b610336610460565b6001600160a01b03811661036557604051631e4fbdf760e01b8152600060048201526024015b60405180910390fd5b61036e8161048d565b50565b61037e8383836001610519565b505050565b6001600160a01b0383811660009081526001602090815260408083209386168352929052205460001981146103fb57818110156103ec57604051637dc7a0d960e11b81526001600160a01b0384166004820152602481018290526044810183905260640161035c565b6103fb84848484036000610519565b50505050565b6001600160a01b03831661042b57604051634b637e8f60e11b81526000600482015260240161035c565b6001600160a01b0382166104555760405163ec442f0560e01b81526000600482015260240161035c565b61037e8383836105ee565b6005546001600160a01b031633146102f35760405163118cdaa760e01b815233600482015260240161035c565b600580546001600160a01b038381166001600160a01b0319831681179093556040519116919082907f8be0079c531659141344cd1fd0a4f28419497f9722a3daafe3b4186f6b6457e090600090a35050565b6001600160a01b0382166105095760405163ec442f0560e01b81526000600482015260240161035c565b610515600083836105ee565b5050565b6001600160a01b0384166105435760405163e602df0560e01b81526000600482015260240161035c565b6001600160a01b03831661056d57604051634a1406b160e11b81526000600482015260240161035c565b6001600160a01b03808516600090815260016020908152604080832093871683529290522082905580156103fb57826001600160a01b0316846001600160a01b03167f8c5be1e5ebec7d5bd14f71427d1e84f3dd0314c0f7b2291e5b200ac8c7c3b925846040516105e091815260200190565b60405180910390a350505050565b6001600160a01b03831661061957806002600082825461060e919061088c565b9091555061068b9050565b6001600160a01b0383166000908152602081905260409020548181101561066c5760405163391434e360e21b81526001600160a01b0385166004820152602481018290526044810183905260640161035c565b6001600160a01b03841660009081526020819052604090209082900390555b6001600160a01b0382166106a7576002805482900390556106c6565b6001600160a01b03821660009081526020819052604090208054820190555b816001600160a01b0316836001600160a01b03167fddf252ad1be2c89b69c2b068fc378daa952ba7f163c4a11628f55a4df523b3ef8360405161070b91815260200190565b60405180910390a3505050565b60006020808352835180602085015260005b818110156107465785810183015185820160400152820161072a565b506000604082860101526040601f19601f8301168501019250505092915050565b80356001600160a01b038116811461031b57600080fd5b6000806040838503121561079157600080fd5b61079a83610767565b946020939093013593505050565b6000806000606084860312156107bd57600080fd5b6107c684610767565b92506107d460208501610767565b9150604084013590509250925092565b6000602082840312156107f657600080fd5b6107ff82610767565b9392505050565b60006020828403121561081857600080fd5b5035919050565b6000806040838503121561083257600080fd5b61083b83610767565b915061084960208401610767565b90509250929050565b600181811c9082168061086657607f821691505b60208210810361088657634e487b7160e01b600052602260045260246000fd5b50919050565b808201808211156102b757634e487b7160e01b600052601160045260246000fdfea264697066735822122019378d1f10bd36e315cc4ceaf44bce92f4c4c991c7cfb3bf3733ccebc8ac19cf64736f6c63430008190033","linkReferences":{}},"methodIdentifiers":{"allowance(address,address)":"dd62ed3e","approve(address,uint256)":"095ea7b3","balanceOf(address)":"70a08231","decimals()":"313ce567","mint(uint256)":"a0712d68","name()":"06fdde03","owner()":"8da5cb5b","renounceOwnership()":"715018a6","symbol()":"95d89b41","totalSupply()":"18160ddd","transfer(address,uint256)":"a9059cbb","transferFrom(address,address,uint256)":"23b872dd","transferOwnership(address)":"f2fde38b"},"id":32}